:1000000070860020E9060000A1060000A10600009D
:10001000A1060000A1060000A106000000000000EB
:10002000000000000000000000000000A106000029
:10003000A106000000000000A1060000A1060000CB
:1000400000210FF2644252F83130834204D2491C3D
:100050000629F8D30020704702EBC10040687047C2
:100060002DE9F84FDFF80832DFF8005289460246E2
:100070001968DFF8F4010140A9424DD002F03800C0
:100080001028C2F3841B4FF4004ADFF8EC1104D1AE
:10009000884600274FF00C0B30E0302804D147F29F
:1000A00030584FF4001727E0382803D1D0464FF4DA
:1000B000800721E012F0380F1BD1ABF109001228A4
:1000C0002AD20FF2C81555F82B80D86F20F01C00EB
:1000D000BBF1070FA8BF40F01000D8674FF04C7776
:1000E0004FF400201D6DEC0500F1B980401EF9D1E0
:1000F00012E04FF000080027ABF1090B12F4605F2B
:10010000DFF87841DFF86C617CD112F0380F1CBF4A
:1001100002F03800102801D000209EE0C2F30260F7
:100120000090DFF85C01FFF78BFF30613168DFF88A
:100130005401014041F00041316000980FF29831C4
:1001400051F820103068384349443060491E009A05
:10015000B1FBF9F5D8200FF2A011424388180C2109
:1001600001FB0BF142186D1E52686260626842EA40
:10017000052262604058216801F4000108432060B4
:10018000206821686268636803F01F03C0F3892058
:100190005B1CB8FBF3F34FEA501909FB03F5C1F3FD
:1001A00009016D09A0EB491001FB0351584301EB14
:1001B0009021C2F30420401CB1FBF0F94FEA590929
:1001C0004846FFF73DFF30612068010204D53168E1
:1001D00041F08041316003E0206840F4000020607D
:1001E0005046A168CA0702D4401E0028F9DC30B18D
:1001F0003068074347F0104747F0010727E04FF00A
:10020000000925E00846FFF71BFF30612168DFF891
:10021000780021F4000121603168014041F0004183
:10022000B9F1000F316008BF002506D0B8FBF9F521
:1002300005B16D1E681CB8FBF0F94846FFF700FFDA
:100240003061306840EA8520074347F00047376057
:10025000306820F4700030604846BDE8F28F002816
:100260007FF44AAF58E700000000FF70000005105F
:1002700000E00F40B0E00F400024F40060E10F40C8
:1002800040787D0100FC0FE0FF0300EF40420F00CB
:1002900000201C0080841E0000802500999E3600EE
:1002A0000040380000093D0000803E0000004B0087
:1002B000404B4C0000204E00808D5B0000C05D0074
:1002C0000080700000127A0000007D008096980087
:1002D000001BB7000080BB00C0E8CE00647ADA00E3
:1002E0000024F4000000FA0080A81201002D310162
:1002F00000366E0140787D014000000000000000E3
:10030000000100003E0008000000000000010000A5
:10031000A0000000020000000001000034540100B1
:1003200000000000000100002B700600000000002B
:100330000001000028000000000000000001000093
:100340002700010000000000000100002000000064
:10035000000000000001000050000000020000004A
:10036000000100001AAC00000000000000010000C5
:100370001794090000000000000100001698050015
:100380000000000000010000140000000000000058
:1003900000010000138008000000000000010000C0
:1003A000A000000008000000000100001000000094
:1003B0000000000000010000280000000200000012
:1003C00000010000400000000400000000010000E7
:1003D0006000000000000000000100005D000C0053
:1003E00000000000000100005000000000000000BC
:1003F000000100004E0002000000000000010000AB
:1004000041AC010000000000000100003C000000C1
:1004100000000000000100003A8009000000000018
:10042000000100003000000000000000000100009A
:10043000280000000000000000010000270001006B
:100440000000000000010000236006000000000022
:100450000001000021600800000000000001000011
:100460001E00000000000000000100001DC004008C
:100470000000000000010000500000000200000029
:100480000001000018000000000000000001000052
:1004900014000000000000000001000060000000E7
:1004A00004000000000100000024F40030003000CF
:1004B000005A62029100910000879303D200D2009B
:1004C00000B4C4041301130100E1F5055401540103
:1004D000000E27079501950100688909001C4E0E42
:1004E00070B514491448154C154DFFF7B9FD20603F
:1004F0002068144C00F02AF8616A13488A69904712
:100500002268D36B01212846984723681E68FF2282
:1005100001212846B047462000F039F823681E68BC
:10052000002201212846B0474FF47A7000F02FF8DE
:10053000EBE700BF000E2707800600F10000002057
:1005400000400640200000010C0800F010B5174CD8
:100550004FF47A71B0FBF1F021684A6990470FF2CD
:10056000190000F029F82069416888472168C868A7
:10057000BDE81040004700000D49086818B10A683E
:10058000521E0A607047094801688A68104710B512
:10059000074C2060054801684A6890470548016893
:1005A000416020680028FCD110BD00003800000127
:1005B0000400002014E000E080B501460F2000F0A8
:1005C00009F80348016841F00201016001BD000023
:1005D00010E000E0F0B5094C094A256895420AD0C0
:1005E0002568002605EB86073F6842F82670761CD2
:1005F0009B2EF7D3226042F82010F0BD08ED00E0FA
:100600000004002019E050F8042BD30744BFA9F1DF
:1006100001039A18091F0023042942F8043BF9D268
:100620005FEA817C134604D54FF0000CA2F800C0AD
:100630009B1CC90744BF0021197050F8041B0029F6
:10064000E1D1704710B5074979441831064C7C4414
:10065000163404E00A68081D114488470146A14287
:10066000F8D110BD2C000000380000004EF6885173
:10067000CEF20001086840F470000860BFF34F8FAD
:10068000BFF36F8F4FF00070E1EE100A704700006B
:1006900075FFFFFF080000000000002000000000C0
:1006A000FEE7000000F00BF8002801D0FFF7CAFFBA
:1006B0000020AFF30080FFF713FF00F002F80120E5
:1006C000704700F001B800000746384600F002F815
:1006D000FBE7000080B5AFF30080024A110018204C
:1006E000ABBEFBE726000200AFF30080FFF7BEFFC2
:0406F000FFF7D8FF39
:04000005000006E908
:00000001FF
